:100000000C9434000C9451000C9451000C94510049
:100010000C9451000C9451000C9451000C9451001C
:100020000C9451000C9451000C9451000C9451000C
:100030000C9451000C9451000C9451000C945100FC
:100040000C9451000C9451000C9451000C945100EC
:100050000C9451000C9451000C9451000C945100DC
:100060000C9451000C94510011241FBECFEFD8E026
:10007000DEBFCDBF11E0A0E0B1E0E4E3F2E002C0FA
:1000800005900D92A831B107D9F721E0A8E1B1E0C0
:1000900001C01D92A831B207E1F70E9405010C943E
:1000A00018010C94000085B18C6285B983E58CBD84
:1000B0000895982F907F9BB995B19E7F95B995B182
:1000C0009D7F95B995B1946095B995E39A95F1F7AF
:1000D000000095B19B7F95B9EFEDFEE23197F1F706
:1000E00000C000008295807F8BB985B1846085B99E
:1000F000F5E3FA95F1F7000085B18B7F85B98FEDB7
:100100009EE20197F1F700C000000895982F907FBC
:100110009BB995B1916095B995B1946095B995E306
:100120009A95F1F7000095B19B7F95B98295807FF4
:100130008BB985B1846085B985E38A95F1F70000B4
:1001400085B18B7F85B98FED9EE20197F1F700C0F5
:10015000000008958FEF8AB984B985B18B7F85B986
:1001600083E30E94590082E30E94590088E20E94C2
:1001700059008EE00E94590081E00E9459008FE3EF
:100180009FE10197F1F700C0000086E00E9459004E
:100190000895CF93DF9300D000D0CDB7DEB790E8BD
:1001A000998390EC9A8394E99B8394ED9C83E62F4A
:1001B000F0E0319721E030E02C0F3D1FE20FF31FFC
:1001C0009081890F81500E9459008FE99FE001972B
:1001D000F1F700C000000F900F900F900F90DF918B
:1001E000CF9108950F931F93CF938C01C0E003C06C
:1001F0000E948600CF5FF801EC0FF11D8081811114
:10020000F7CFCF911F910F9108950E9453000E9444
:10021000AA0061E081E00E94C90081E191E00E94B2
:10022000F2008FE39CE90197F1F700C00000F1CFE5
:04023000F894FFCF70
:1002340020202020202020202020202020202020BA
:080244000048656C6C6F0000BE
:00000001FF
