:100000000C9438000C9490000C9490000C94900088
:100010000C9490000C9490000C9490000C94900020
:100020000C9490000C9490000C9490000C94900010
:100030000C9490000C9490000C9490000C94900000
:100040000C9490000C9490000C9490000C949000F0
:100050000C9490000C9490000C9490000C949000E0
:100060000C9490000C9490000100010A00012E00F5
:1000700011241FBECFEFD8E0DEBFCDBFE8E6F0E031
:1000800040E017C0B591A59135912591059107FDE7
:100090000CC095918591EF01F92FE82F05900D92F5
:1000A000A217B307D9F7FE0104C01D92A217B30728
:1000B000E1F7EF36F40731F70E9462000C948500F7
:0400C000F894FFCFE2
:1000C400CF93DF93CDB7DEB72A970FB6F894DEBF90
:1000D4000FBECDBF8FEF8AB98AE0E0E0F1E0DE0128
:1000E400119601900D928A95E1F780E009C0E1E054
:1000F400F0E0EC0FFD1FE80FF11D90819BB98F5FBD
:060104008A30A8F3F2CFDF
:10010A00EC010E9495000E949400CE010E94960084
:06011A00CE010E949200DC
:040120000C9400003B
:040124000E946000D5
:02012800089538
:02012A00089536
:02012C00089534
:0A012E005952474F5F454C413233F0
:00000001FF
