:100000000C9434000C943E000C943E000C943E0082
:100010000C943E000C943E000C943E000C943E0068
:100020000C943E000C943E000C943E000C943E0058
:100030000C943E000C943E000C943E000C943E0048
:100040000C943E000C943E000C943E000C943E0038
:100050000C943E000C943E000C943E000C943E0028
:100060000C943E000C943E0011241FBECFEFD8E04C
:10007000DEBFCDBF0E944F000C9474000C940000B2
:1000800095B19B7F95B98EBD0DB407FEFDCF6EBDBA
:100090000DB407FEFDCF85B1846085B908958CE26B
:1000A00084B981E58CBD6FEF89E00E94400065E076
:1000B0008BE00E94400061E08CE00E94400068E01C
:1000C00081E00E94400060E082E00E94400060E029
:1000D00083E00E94400068E084E00E94400065E008
:0C00E00085E00E944000FFCFF894FFCFA5
:00000001FF
