:100000000C943D000C94B3160C94B3160C94B316D8
:100010000C94B3160C94B3160C94B3160C94B3163C
:100020000C94B3160C94B3160C94B3160C94B3162C
:100030000C94B3160C94B3160C94B3160C94B3161C
:100040000C94B3160C94B3160C94B3160C94B3160C
:100050000C94B3160C94B3160C94B3160C94B316FC
:100060000C94B3160C94B316010001028001020136
:1000700004002D7401040106800011241FBECFEF7F
:10008000D8E0DEBFCDBFE8E6F0E040E017C0B591B4
:10009000A59135912591059107FD0CC0959185910C
:1000A000EF01F92FE82F05900D92A217B307D9F7AA
:1000B000FE0104C01D92A217B307E1F7E937F40768
:0E00C00031F70E9466150C945016F894FFCF8D
:1000CE0068076C094C836A9074A07AC000806888B7
:0600DE0000846C82008129
:1000E400494E4600696E66004E414E006E616E00D8
:1000F400494E4600696E66004E414E006E616E00C8
:0801040067C3A56E6765720078
:07010C00286E756C6C2900E0
:06011300286E696C290052
:10011A00A3EAB0E0E3E9F0E00C942F154C01590191
:10012A00C756DF4F488359836A83C959D040212C67
:10013A00312C6E012BE8C20ED11C85E2782E2601E5
:10014A0030E8632ECE018D569F4FC456DF4F9983F8
:10015A008883CC59D0409C0140E8CF55DF4F288393
:10016A0039834A83C15AD040C756DF4F4881C9599B
:10017A00D040C656DF4F5881CA59D040C556DF4FC6
:10018A006881CB59D040FA01849167FD8081882328
:10019A0009F4C9C3CF57DF4F19821882C158D0401A
:1001AA008FEF9FEFCD57DF4F99838883C358D04095
:1001BA00CB57DF4F19821882C558D040A1E0B0E072
:1001CA00AC0FBD1FC957DF4FB983A883C758D040AA
:1001DA00E0E8F0E0C757DF4FF983E883C958D04019
:1001EA00CA01A62FE12CF12CFC012491A7FD208144
:1001FA0021111BC0E114F10401F19701C4010E940D
:10020A004814C756DF4F88819981AA81C959D040BD
:10021A008E0D9F1DA11DF7FCAA95C756DF4F888337
:10022A009983AA83C959D04008C00196A11D2532D5
:10023A0009F3FFEFEF1AFF0AD7CFC756DF4F8881BE
:10024A009981AA81C959D040FC012491A7FD208136
:10025A00253209F056C39C014A2F2F5F3F4F4F4F5B
:10026A00C256DF4F288339834A83CE59D040C756B6
:10027A00DF4F288339834A83C959D040C756DF4F95
:10028A0088819981AA81C959D040FC012491A7FD8E
:10029A0020812B3241F4CF57DF4F28813981C15851
:1002AA00D04024600BC02C32CCF02D3259F5CF57F8
:1002BA00DF4F28813981C158D0402160CF57DF4FA5
:1002CA0039832883C158D0400196A11DC756DF4FF4
:1002DA0088839983AA83C959D040D0CF203241F468
:1002EA00CF57DF4F28813981C158D0402860E6CFE7
:1002FA00233291F4CF57DF4F28813981C158D0403A
:10030A002061DCCF203341F4CF57DF4F2881398178
:10031A00C158D0402260D2CF2A3299F50196A11D48
:10032A00C756DF4F88839983AA83C959D040D5011C
:10033A00ED91FC911197CF0102968D939C93808148
:10034A009181CB57DF4F99838883C558D04097FF57
:10035A003EC0CF57DF4F28813981C158D040B1E024
:10036A002B27CF57DF4F39832883C158D040919527
:10037A0081959109CB57DF4F99838883C558D0401F
:10038A0026C0BC018A2F0E940014CB57DF4F9983E5
:10039A008883C558D040C756DF4F288139814A81A2
:1003AA00C959D040F901849147FD8081082E000C7B
:1003BA00990BC0970A9758F42F5F3F4F4F4FC75674
:1003CA00DF4F288339834A83C959D040E4CFCF57B6
:1003DA00DF4F88819981C158D04080FF07C08D7F47
:1003EA00CF57DF4F99838883C158D040C756DF4F14
:1003FA0088819981AA81C959D040FC012491A7FD1D
:10040A0020812E3209F058C0CD57DF4F1982188249
:10041A00C358D0409C014A2F2F5F3F4F4F4FC756BA
:10042A00DF4F288339834A83C959D040F90154914F
:10043A0047FD50815A32D1F40296A11DC756DF4FAB
:10044A0088839983AA83C959D040D501ED91FC913B
:10045A001197CF0102968D939C9380819181CD57FC
:10046A00DF4F99838883C358D04026C0842FB901AF
:10047A000E940014CD57DF4F99838883C358D04018
:10048A00C756DF4F288139814A81C959D040F901BD
:10049A00849147FD8081082E000C990BC0970A971A
:1004AA0058F42F5F3F4F4F4FC756DF4F288339838A
:1004BA004A83C959D040E4CFCE0187569F4F0E9444
:1004CA006813182FC756DF4F2881C959D040C6561E
:1004DA00DF4F8881CA59D040C556DF4F9881CB5922
:1004EA00D040E22FF82F849197FD8081082E000CCE
:1004FA00990B0E946D168936910509F45AC0B4F415
:10050A008336910509F466C144F48532910509F4EC
:10051A00A1C18136910529F1B3C18436910509F447
:10052A0048C0883691050CF42DC1AAC180379105BF
:10053A0009F4CBC04CF48E36910509F419C18F36F3
:10054A00910509F47CC09CC18537910509F454C012
:10055A008837910509F496C08337910509F090C14F
:10056A0058C1612F70E0A501C6010E94F114892BC0
:10057A0009F4B7C1C756DF4F88819981AA81C95941
:10058A00D0409C014A2F2F5F3F4F4F4FC756DF4F36
:10059A00288339834A83C959D040FC012491A7FD95
:1005AA002081A601BE016F577F4FC4010E94FB073D
:1005BA0095C1612F70E0950141E050E0C6010E94AB
:1005CA00280D892B09F48DC1C756DF4F888199817F
:1005DA00AA81C959D0400196A11DC756DF4F888309
:1005EA009983AA83C959D040A601BE016F577F4F8C
:1005FA00C4010E94690C72C1612F70E0950140E04C
:10060A0050E0C6010E94280D892B09F46AC1C75619
:10061A00DF4F88819981AA81C959D0400196A11DCD
:10062A00C756DF4F88839983AA83C959D040A60148
:10063A00BE016F577F4FC4010E94BF124FC1612F85
:10064A0070E0950140E050E0C6010E94280D892B18
:10065A0009F447C1C756DF4F88819981AA81C959D0
:10066A00D0400196A11DC756DF4F88839983AA837C
:10067A00C959D040A601BE016F577F4FC4010E94DD
:10068A001F112CC1612F70E0950140E050E0C601B6
:10069A000E94280D892B09F424C1C756DF4F88818F
:1006AA009981AA81C959D0409C014A2F2F5F3F4F97
:1006BA004F4FC756DF4F288339834A83C959D040E1
:1006CA00FC012491A7FD20814BC0950140E050E038
:1006DA0060EF70E0C6010E94280D892B09F401C160
:1006EA00C756DF4F88819981AA81C959D04001969E
:1006FA00A11DC756DF4F88839983AA83C959D04061
:10070A0086E023E131E040E0F901DE01AD56BF4F5A
:10071A00742F0E942B16D6012C9111963C91119799
:10072A0012964C91129713965C91139714966C91AA
:10073A00149715967C91159716968C91169717967D
:10074A009C91A0E00E94381651F400E010E0CF55C9
:10075A00DF4F288139814A81C15AD040B9C028E780
:10076A00A601BE016F577F4FC4010E94290BB6C074
:10077A00612F70E09501A1014E0D5F1DC6010E9417
:10078A00B310AFC0612F70E0A501C6010E94F11439
:10079A00892B09F4A6C0C756DF4F88819981AA819F
:1007AA00C959D0409C014A2F2F5F3F4F4F4FC75620
:1007BA00DF4F288339834A83C959D040FC012491E9
:1007CA00A7FD2081A601BE016F577F4FC4010E9479
:1007DA009E0484C0103809F084C0C756DF4F888150
:1007EA009981AA81C959D0400196A11DC756DF4FE8
:1007FA0088839983AA83C959D040D501ED91FC9188
:10080A001197CF0102968D939C938081F601808384
:10081A005BC0103809F065C0C756DF4F88819981DF
:10082A00AA81C959D0400196A11DC756DF4F8883B6
:10083A009983AA83C959D040D501ED91FC911197AA
:10084A00CF0103968D939C9320813181428100E0F0
:10085A0010E03EC0103809F044C0C756DF4F888107
:10086A009981AA81C959D0400196A11DC756DF4F67
:10087A0088839983AA83C959D040F601708224C01B
:10088A00D6017C92C256DF4F288139814A81CE59DE
:10089A00D040C756DF4F288339834A83C959D0408D
:1008AA00CF57DF4F19821882C158D040CB57DF4F3C
:1008BA0019821882C558D0408FEF9FEFCD57DF4F6E
:1008CA0099838883C358D04001E010E0462D9201F5
:1008DA00BE016F577F4FC4010E945A128E0D9F1D91
:1008EA0011C0C756DF4F88819981AA81C959D04062
:1008FA000196A11DC756DF4F88839983AA83C959D8
:10090A00D040C7017101E80EF91EE214F3044CF459
:10091A008FE490E090930101809300018FEF9FEFA5
:10092A0003C0170121CCC101CD55DF4FE2E10C9480
:02093A004B155B
:10093C00A6E2B0E0E4EAF4E00C942F159F8F8E8FC2
:10094C00798F688F122FFB010190F081E02DFA87CF
:10095C00E987FB01C280D380248135813C8B2B8BB2
:10096C008085918599A388A30680F781E02DFA8371
:10097C00E983FA0180809180A280B38020E030E08E
:10098C00A901C501B4010E949E1687FF06C0B7FAE3
:10099C00B094B7F8B0948DE204C0F985F2FF0CC3A3
:1009AC008BE2E981FA8180832B893C8921503109C2
:1009BC0038872F8341E050E05A8B498B06C08B89D6
:1009CC009C8998878F831A8A198AD501C401BF77AD
:1009DC000097E0E8AE07EFE7BE07D9F4212F110F1F
:1009EC00330B2154310989819A8149895A89840FA1
:1009FC00951F2A31310520F444EE50E060E003C02D
:100A0C0048EE50E060E00E940F1668EE70E080E067
:100A1C001EC00197A048BF4730F1212F110F330B97
:100A2C002154310989819A8149895A89840F951FEA
:100A3C002A31310520F44CEE50E060E003C040EF69
:100A4C0050E060E00E940F1660EF70E080E00E94C2
:100A5C00B015E981FA81AF0160E8E984FA840B8969
:100A6C001C899C01A1C220E030E0A901C501B401A0
:100A7C000E949E161B821C82882309F467C0F0E832
:100A8C00FD832FE32E83212C312C20E030E040E23B
:100A9C0051E46B817C818D819E810E94AC16F62E77
:100AAC00072F8D879B87A50194010E94A31618160A
:100ABC0054F03FEF231A330AFB820C834D854D8390
:100ACC005B855E83E2CF1C861B862B813C814D812E
:100ADC005E81C501B4010E949E1687FF3DC084ED66
:100AEC0028168EEF380604F5EB85FC85EF2BE1F428
:100AFC0020E030E040E85AE5C501B4010E94AC1694
:100B0C004B015C0120E030E040E85AE56B817C81D0
:100B1C008D819E810E94AC166B837C838D839E831A
:100B2C0021E030E03C872B8720E030E040E251E4CC
:100B3C006B817C818D819E810E94A8166B837C8346
:100B4C008D839E8331E0231A3108BFCF40E84D835B
:100B5C005FE35E83212C312C812F110F990B9BA30A
:100B6C008AA30E946D168B8FD7FC03C0DEA2CDA288
:100B7C0004C0E6E0F0E0FEA3EDA3FB8DF73641F4F4
:100B8C00CD2809F01EC221E030E03EA32DA319C2EE
:100B9C008B8D8D8B04C037FE25C296E69D8BEDA107
:100BAC00FEA13196FEA3EDA3FD89F63699F437FE2E
:100BBC0008C01B821C8220E82D833FE33E83212C3E
:100BCC00312C4B8D473631F08DA19EA1820D931D9A
:100BDC009EA38DA39B819B87EC81ED87FD81FE8B72
:100BEC002E812A8F750164011D8E1C8E8C8D9D8D1E
:100BFC00EDA1FEA18E179F07C1F12B853D854E8976
:100C0C005A8DC701B6010E94A8160E94240F2B0111
:100C1C003C010E947C166CA38701760117FB109592
:100C2C0017F910952B853D854E895A8DC301B2015C
:100C3C000E94860E6B017C01F7FAF094F7F8F094A1
:100C4C0020E030E040E251E46B857D858E899A8D01
:100C5C000E94A8166B877D878E8B9A8F4C8D5D8D2D
:100C6C004F5F5F4F5D8F4C8FC1CF20E030E040EA8B
:100C7C0050E46B857D858E899A8D0E94AC162B0174
:100C8C003C019B01AC01C701B6010E949E1687FD79
:100C9C000BC0A3019201C701B6010E949E168111DF
:100CAC0006C0FCA1F0FD03C0412C512C3201A30164
:100CBC009201C501B4010E9476164B015C012D898D
:100CCC00253611F0310102C0612C712C23014DA18C
:100CDC005EA1441A550AC988DA8800E010E01C8627
:100CEC001B8689859A85807199279F8B8E8B6414BE
:100CFC00750431F48B859C85892B09F49AC0A6C0A8
:100D0C00DD8ECC8EE88DF98D808591850597C81682
:100D1C00D90680F72B813C814D815E81C501B401E0
:100D2C000E94A8160E94240F6D877E878F87988B50
:100D3C000E947C16CB01EE89FF89EF2B69F4892B7D
:100D4C0059F4FB8DF73641F477FE06C098012F5FFE
:100D5C003F4F3D8F2C8F43C04B855C85452BB1F4A9
:100D6C0077FE14C05FEFC51AD50AE981FA818C8D24
:100D7C009D8DE80FF91F9EE29083EF81F8853197E6
:100D8C00F887EF8321E030E03C872B87E981FA81FB
:100D9C00EC0DFD1D1D8F0C8F8C8D9D8D892B49F0BD
:100DAC0030E331934C8D5D8D415051095D8F4C8FEB
:100DBC00F3CFC8018C0D9D1D2F813885201B310B65
:100DCC006C01EFEFCE1ADE0AE981FA81E80FF91F08
:100DDC00605D6083A9014150510958874F8385019B
:100DEC00740117FB109517F910952B813C814D81DF
:100DFC005E816D857E858F8598890E94860E4B015C
:100E0C005C01B7FAB094B7F8B09420E030E040E25F
:100E1C0051E46B817C818D819E810E94A8166B832D
:100E2C007C838D839E8351E0651A71080C8D1D8D1A
:100E3C005ECFF985F4FF0AC0E981FA81EC0DFD1D46
:100E4C008EE2808396012F5F3F4F690149815A8161
:100E5C004C0D5D1D5C874B87FA011082FD89F536C0
:100E6C0009F061C0E981FA8128A139A1E20FF31FD1
:100E7C003197108237FE06C031942194310801E07D
:100E8C0010E002C000E010E0E8A1F9A1319749811F
:100E9C005A81E40FF51F22E030E08AE0E82EF12CB5
:100EAC00CF0149815A81841B950B2114310479F0AF
:100EBC00C101B7010E94C615805D82931B012150B0
:100ECC0031098F819885019798878F83E9CF121606
:100EDC00130674F3FC013197E40FF51F012B11F489
:100EEC002BE201C02DE220830297E981FA81E80F01
:100EFC00F91F2AA13BA1215431092A31310510F0E7
:100F0C0025E601C025E420832F8138852250310944
:100F1C0038872F83C816D90634F4AF0160E88B8567
:100F2C009C850E940F1649815A813A0180E8882ECF
:100F3C00998591FF2EC090FD2CC0EF81F8851E166F
:100F4C001F063CF5882DB3010E94B01529813A810A
:100F5C00820F931F9C0149815A81241B350BE9890F
:100F6C00FA892E173F074CF0FC012081EF81F885A0
:100F7C00E80FF91F20830197EDCF4F81588560E36F
:100F8C0070E089819A818E0F9F1F0E945B161C8ACC
:100F9C001B8A882DB3010E94B015E984FA840B8951
:100FAC001C899C01682DA3018E8D9F8D0E94BD0F05
:100FBC00A696E2E10C944B15598553FF00CD80E2C7
:100FCC00F0CC2CEF22162FEF32064CF04DA15EA187
:100FDC00241635060CF4DFCD55E65D8BFBCD35E6DE
:0A0FEC003D8BF8CD46E64D8BF5CDA8
:100FF600A0E2B0E0E1E0F8E00C942F159D8F8C8F15
:10100600FB01298320812D8331813E8F828193814B
:101016009B8B8A8B248135813987288780859185AA
:10102600998F888F46805780FA01C080D180E280F0
:10103600F38020E030E0A901C701B6010E949E16A8
:1010460087FF06C0F7FAF094F7F8F0948DE204C033
:101056005D8152FFF6C28BE2F201808328853985D5
:10106600215031093F872E8741E050E05C834B8356
:1010760006C0888599859F878E871C821B82B7014B
:10108600A6017F77E9810E2E000CFF0BF98BE88B0A
:1010960041155105F0E86F07FFE77F07C1F428897E
:1010A6003989215431098B819C81840D951D2A3102
:1010B600310520F444EF50E060E003C048EF50E013
:1010C60060E00E940F1668EF70E080E01CC08B8124
:1010D6009C81840D951D4130510560487F47E8F09D
:1010E60028893989215431092A31310520F44CEFF8
:1010F60050E060E003C040E051E060E00E940F165F
:1011060060E071E080E00E94B015A20160E8ED8029
:10111600FE8C088519859C018CC220E3FC01208386
:10112600EB81FC813196E40DF51D2B813C812E5F10
:101136003F4F3C832B8348895989415451095B8F22
:101146004A8F4A31510510F088E701C088E580834F
:1011560020E030E0A901C701B6010E949E16612C6D
:10116600712C1F8E1982882309F464C050E858A395
:101176008FE38A832F8D398148A15A816F8D7981BA
:1011860088A19A810E9476165B018C01A7019601BF
:101196000E94A31618160CF442C09FEF691A790A2A
:1011A600AF8EB98208A31A83E5CF20E030E040E095
:1011B6005FE36F8D798188A19A810E94AC1620E049
:1011C60030E0A9010E949E16811118C020E030E08F
:1011D60040E85AE56F8D798188A19A810E94AC1604
:1011E6006F8F798388A39A8320E030E040E85AE540
:1011F600C701B6010E94AC166B017C0120E030E00D
:1012060040E05FE36F8D798188A19A810E94AC16D8
:101216006F8F798388A39A83A1E06A1A71082F8D4C
:10122600398148A15A81C701B6010E949E1687FDE1
:10123600BCCF04C0E0E8E8A3FFE3FA832A893B8930
:1012460037FD02C0C90102C088E190E0AC014F5FE2
:101256005F4F5B874A878F8C9980A8A0BA8016015A
:1012660087011F821E829401A501B101C8010E9457
:10127600A8160E94240F6C8B7D8B8E8B9F8B9401FE
:10128600A5010E94AC169B01AC01B101C8010E94E8
:1012960075161B018C0120E030E040E85DE3B401E7
:1012A600C5010E94AC164B015C018E819F8101969F
:1012B6009F838E83EA89FB89F7FF09C020E030E02F
:1012C600A901B101C8010E949E16882341F02A8512
:1012D6003B854E815F81421753072CF204C08E81F5
:1012E6009F819B878A8720E030E040E051E4B4018B
:1012F600C5010E94AC164B015C019B01AC01B1011A
:10130600C8010E949E1687FD12C0A5019401B10175
:10131600C8010E949E1681110DC06C897D898E8937
:101326009F890E947C1661707727672B19F4812CA0
:10133600912C5401A5019401C701B6010E947616AD
:101346006B017C01DC01CB01BF770097A048BF474A
:1013560009F4A5CE2E843F84F2E02F1A31082A859F
:101366003B85319521953109398B288B0B811C8161
:10137600A12CB12C1F821E82812C912C488D598D57
:10138600455051095D8B4C8BEC89FD890E171F0763
:101396000CF091C02F8D398148A15A81C701B60141
:1013A6000E94A8160E94240F6A877B878C879D87D8
:1013B6000E947C16AB016115710539F48114910404
:1013C60021F05FEFA51AB50A4DC0EE81FF81EF2B24
:1013D60089F48114910471F0F201E00FF11F2EE2FD
:1013E600208331E0231A31080F5F1F4FE1E0F0E060
:1013F600FF83EE83F201E00FF11F95012115310500
:1014060029F0A0E3A19321503109F8CFF801EA0DA4
:10141600FB1DFF87EE872A183B084A3051051CF44E
:10142600605D7F4F02C0695A7F4F2A8D3B8D2A31FE
:10143600310550F4CB018062815691094A9720F418
:10144600CB010E946416BC010E851F850F5F1F4FDE
:10145600EE85FF85E40DF51D608331E0231A310822
:10146600A12CB12C2F8D398148A15A816A857B85A3
:101476008C859D850E94AC169B01AC01C701B60107
:101486000E9475166B017C0120E030E040E85DE3C8
:101496006F8D798188A19A810E94AC166F8F7983AE
:1014A60088A39A8341E0841A9108888999898815C6
:1014B600990509F069CF2E813F81232B51F5F20161
:1014C600E00FF11FA114B104E9F04A895B891416F3
:1014D6001506C4F45D8150FD15C08EE28083F801C7
:1014E6003196E40DF51DC50120E321930197E9F737
:1014F6000A0D1B1D0F5F1F4FC50180959095280E85
:10150600391E07C08D8184FF04C08EE280830F5F81
:101516001F4FF201E00FF11FFF83EE831082E88D6B
:10152600F98DE40DF51D3197108277FE07C0719491
:1015360061947108EE24E394F12C02C0E12CF12CA5
:10154600E88DF98D3197E40DF51D21E030E08AE054
:10155600C82ED12CCF01841995096114710469F044
:10156600C301B6010E94C615805D82933B012150DE
:10157600310941E0241A3108EDCF2130310581F3DC
:10158600FC013197E40DF51DEF2811F42BE201C0A3
:101596002DE220830297F201E80FF91F2A8D3B8D79
:1015A6002A31310510F020E701C020E52083081715
:1015B600190734F4AF0160E88E819F810E940F16EF
:1015C600320130E8832E4D8141FF28C040FD26C000
:1015D60052E0251A31081214130404F5882DB301BC
:1015E6000E94B015840D951D9C01241935094B8167
:1015F6005C81241735073CF0FC012081E20DF31DC8
:1016060020830197F1CFA10160E370E08B819C817B
:10161600840D951D0E945B1619861886882DB301C8
:101626000E94B015ED80FE8C088519859C01682DF9
:10163600A3018C8D9D8D0E94BD0FA096E2E10C94B6
:0C1646004B155D8153FF15CD80E206CDF1
:10165200A4E1B0E0EFE2FBE00C942F1598878F83B2
:101662007A8369835C8B4B8B122FDB011296ED918F
:10167200FC91139714962D913C9115973E832D83DF
:10168200ED90FC90119716962D903C901797F7FDD0
:1016920003C0E894E1F802C0E1E0F0E0C701807124
:1016A20099279A878987E4FE1FC0AB89BC892C9150
:1016B20011963C91119712964C91129713965C9148
:1016C200139714966C91149715967C91159716960C
:1016D2008C91169717969C91A0E00E94381621F0E3
:1016E2008D819E81029702C08D819E819701287013
:1016F20033273C872B87E3FC0197AB89BC894C904D
:1017020011965C90119712966C90129713967C909A
:10171200139714968C90149715969C90159716967D
:10172200AC9016971796BC90A981BA811896CD9065
:10173200DC901997B1E0CB1AD108D101AC0DBD1DD7
:101742001C929C838B839F01281B390B3E872D871C
:10175200C70182709927988B8F87812F012E000CE9
:10176200990BDC01A154B109BA8BA98B32E0C316E3
:10177200D10434F489859A85892B09F04CC073C051
:101782009201A301B401C501A0E00E94381681F1C3
:10179200B1E0CB1AD108C2018F7099278A30910526
:1017A20014F4C09602C0895A9F4FE989FA897A9740
:1017B20048F49C012062215631092A31310510F486
:1017C2000E946416F101EC0DFD1D80832B813C818A
:1017D200215031093C832B839201A301B401C5013D
:1017E20004E00E94131529013A014B015C01BECFAE
:1017F2008D859E85AB81BC818A0F9B1F18161906A9
:101802003CF21A161B060CF0B5CFEF85F889EF2BC8
:1018120009F0BECFAFCFAB89BC892C9111963C9118
:10182200119712964C91129713965C9113971496F6
:101832006C91149715967C91159716968C91169724
:1018420017969C91A0E00E94381669F0F101EC0D08
:10185200FD1D31971083B2E0CB1AD108F101EC0DD6
:10186200FD1D80E38083EB85FC85EF2B41F0F1E0E9
:10187200CF1AD108F101EC0DFD1D80E28083A98110
:10188200BA8118962D913C911997215031092C1942
:101892003D09C20CD31CA60160E80D811E818F8117
:1018A20098850E94BD0F9C01EF81F885808191810E
:1018B20090FF09C0A981BA8112968D919C911397CC
:1018C200821793070CF4C9016496E2E10C944B155C
:1018D200ADE0B0E0EFE6FCE00C942F159A87898723
:1018E2007C836B83FA01DB011296CD90DC90139717
:1018F20014968D919C9115979E838D83ED90FC900B
:101902001197FA82E98216960D90BC91A02DB887A4
:10191200AF832080318042805380648075808680CE
:1019220097808101B42DF52DE62D7B868C869D86D0
:101932009101A201B301C401A0E00E9438164CF447
:101942000E94FF158901B42FF52FE62F7B878C8724
:101952009D87D7FC04C0E894E1F8FA82E9829101FC
:10196200A201B301C401A0E0ED80FE800E943816FE
:101972001CF0898182FF04C081E0E81AF10805C0E9
:1019820083FF03C091E0E91AF108CE0101965C01E0
:101992008AE0C82ED12C2B2F3F2F4E2F5B856C85D2
:1019A2007D858B819C810E94E10DFC019101A20148
:1019B200B301C401A0E00E9438161CF0898182FFA5
:1019C20012C031970F8118850E0F1F1F9101A201BE
:1019D200B301C401A0E00E94381614F08BE201C0EA
:1019E2008DE2D80108C083FF07C03197AF81B88567
:1019F200AE0FBF1F80E28C93E980FA80AB81BC817D
:101A020018962D913C911997215031092E1B3F0BAD
:101A12008F819885E80FF91FAF0160E80D811E8163
:101A220089859A850E94BD0F9C01A985BA858D91F1
:101A32009C9190FF07C0EB81FC8182819381821788
:0E1A420093070CF4C9012D96E2E10C944B15AC
:101A50000F931F93CF93DF93FC01D9016838710571
:101A600031F194F461387105B1F12CF460387105ED
:101A700009F478C09FC06238710509F459C0643810
:101A8000710509F46FC096C0603A710509F448C049
:101A90002CF46039710509F44BC08CC0603C7105B1
:101AA00009F476C0603F710509F472C083C0CD911E
:101AB000DC911197CE0102968D939C93452B39F0C2
:101AC0009881892F880F880B908381835BC08881E0
:101AD0008083118268C0CD91DC911197CE0104966C
:101AE0008D939C93452B99F088819981AA81BB8124
:101AF000AC01BD01770F440B542FBA018083918351
:101B0000A283B383448345834683478328C00881E7
:101B100019812A813B81008311832283338345C04D
:101B2000CD91DC911197CE0102968D939C9323C0A9
:101B3000CD91DC911197CE0108968D939C9378817D
:101B400069815A814B813C812D819E818F81708377
:101B5000618352834383348325839683878381E023
:101B600090E02AC0CD91DC911197CE0102968D9321
:101B70009C93452BA1F099812881892F880F880B90
:101B80002083918382838383848385838683E6CFC6
:101B9000CD91DC911197CE0102968D939C93088193
:101BA0001981008311831282138214821582168296
:101BB0001782D5CF80E090E0DF91CF911F910F91F8
:021BC000089586
:101BC200A2E1B0E0E7EEFDE00C942F15FC010A8BD8
:101BD2001B832C83732E642E552E462E7D83CC863A
:101BE200D886BF82AE82868197819B878A87D501FC
:101BF2004D915C91228133818085918501971C01F1
:101C020037FF02C021E030E0EA85FB85E80FF91FCB
:101C120010824701E1E0F0E0FA83E983C9018E19FD
:101C22009F099E878D87DA01A270BB27B88BAF8789
:101C3200B885BB0FBB0BB98B1214130474F0A981C6
:101C4200BA81AB2B09F05CC0AE81BF818D919C91B2
:101C520011978F7E8D939C9353C02A893B814C812F
:101C6200572D662D752D842D9D81A0E00E9438167A
:101C7200B1F1E1E02E1A3108FC85F987AF2EB88464
:101C8200C988DC2CEC2CFC2C0C2D1C2D2A893B81C8
:101C92004C81572D662D752D842D9D810E941D1618
:101CA200C90129839A83EA85FB85E20DF31D805DD4
:101CB200808381E0881A91082A893B814C81572DC3
:101CC200662D752D842D9D810E941F162A8B3B83C4
:101CD2004C83752E662E572E482E9D83ADCF8D8553
:101CE2009E85880D991D181619061CF218141904E0
:101CF2000CF0A5CFEF85F889EF2B09F0BACF9FCF73
:0A1D0200C1016296E2E10C944B155A
:101D0C00A5E1B0E0ECE8FEE00C942F15470158017A
:101D1C000E94AC162B013C01A80197010E9476167B
:101D2C00162FC72ED82EF92E862F9C2DAD2DBF2DFC
:101D3C0089839A83AB83BC83AA81FB81EC81ED8080
:101D4C003E802F8008850D8B5E2F5F71212F3A2FDF
:101D5C004F2F60E070E080E090E0211531054105E7
:101D6C0000E15007610571058105910509F05EC020
:101D7C005E2F6E2D732D822D9D8904E30E94131509
:101D8C002D873E874F87588B698B7A8B8B8B9C8BDF
:101D9C008D859E8597708F3F974009F447C0A301AE
:101DAC009201612F7C2D8D2D9F2D0E9475169B010C
:101DBC00AC01C501B4010E949E168823B9F1498675
:101DCC005A866B867C8629853A854B855C85C50150
:101DDC00B4010E947616B62E872E982EA92E262F89
:101DEC00372F482F592F612F7C2D8D2D9F2D0E9421
:101DFC009E16811118C02B2D8B2D982DA92DBA2D27
:101E0C0089839A83AB83BC833A814B815C816E2D31
:101E1C00732D822D9D89A1E00E944416122FC32E92
:101E2C00D42EF52E03C01B2D6401FA2C612F7C2DB2
:0C1E3C008D2D9F2D6596E2E10C944B1556
:101E48004F925F926F927F928F929F92AF92BF92C2
:101E5800CF92DF92EF92FF92CF93DF93CDB7DEB7A9
:101E680028970FB6F894DEBF0FBECDBF6B017C017B
:101E7800DC01CB0147E1B695A795979587954A95DB
:101E8800D1F799278F579109873191059CF597FDCF
:101E980036C088248A94982C3FE7A32EB12C04C01E
:101EA800B594A794979487948A95D2F7D501C401DD
:101EB8008C219D21AE21BF21892B8A2B8B2BD1F020
:101EC80020E030E040E85BE7C701B6010E947616E3
:101ED8006D837E838F839887F7FE04C0C80CD91C56
:101EE800EA1CFB1C80949094A094B094C820D9203C
:101EF800EA20FB205C2D4D2D3E2D2F2D21C020E00A
:101F080030E040E85BE7C701B6010E9476166983B6
:101F18007A838B839C83F7FE0FC0D701C601880F95
:101F2800991FAA1FBB1F892B8A2B8B2B19F350E0F3
:101F380040E030E82FEB04C050E040E030E020E023
:101F4800652F742F832F922F28960FB6F894DEBF33
:101F58000FBECDBFDF91CF91FF90EF90DF90CF9074
:101F6800BF90AF909F908F907F906F905F904F90B1
:021F78000895CA
:101F7A002F923F924F926F927F928F92AF92BF921F
:101F8A00CF92DF92EF92FF920F931F93CF93DF933B
:101F9A00CDB7DEB766970FB6F894DEBF0FBECDBFDA
:101FAA005C013A01862E6901C701817099279C8BD1
:101FBA008B8BE0FC1DC020173107D4F47801EC1894
:101FCA00FD08FE8AED8AA70191E1E916F10410F0F5
:101FDA0040E150E060E270E0CE0101969A8B898B75
:101FEA000E945B1689899A891C0120E8422E0BC03F
:101FFA009601682DA301C5010E944814C016D10696
:10200A00ECF2C60125C090E1E916F10458F020E18E
:10201A0030E0642DA101C5010E94481480E1E81A4C
:10202A00F108F1CF2D893E892F70332789899A8942
:10203A00AC0160E8C5010E9448148B899C89892BF0
:10204A0031F49601682DA301C5010E944814C80104
:10205A0066960FB6F894DEBF0FBECDBFDF91CF9163
:10206A001F910F91FF90EF90DF90CF90BF90AF90AC
:0E207A008F907F906F904F903F902F90089521
:1020880010C00E948A1658F00E94831640F029F466
:102098005F3F29F00C94981651110C9492160C94E9
:1020A800B0160E94CF1468F39923B1F3552391F326
:1020B800951B550BBB27AA2762177307840738F0AF
:1020C8009F5F5F4F220F331F441FAA1FA9F335D00C
:1020D8000E2E3AF0E0E832D091505040E695001CC0
:1020E800CAF72BD0FE2F29D0660F771F881FBB1F7A
:1020F800261737074807AB07B0E809F0BB0B802D58
:10210800BF01FF2793585F4F3AF09E3F510578F083
:102118000C9498160C9492165F3FE4F3983ED4F30F
:10212800869577956795B795F7959F5FC9F7880F57
:10213800911D9695879597F90895E1E0660F771FA9
:10214800881FBB1F621773078407BA0720F0621B3A
:0E215800730B840BBA0BEE1F88F7E095089509
:10216600CF93DF93DC01F90164387105D9F164F48A
:102176006138710521F16238710509F440C0603893
:10218600710509F054C02EC060397105C1F184F49F
:102196006838710509F04BC0C081D181CE01029625
:1021A60091838083E881F981ED93FC9340833CC061
:1021B600603A7105B9F0603C7105A1F038C0C08184
:1021C600D181CE01029691838083E881F981ED93D6
:1021D600FC93052E000C660B770B408351836283BC
:1021E600738322C0C081D181CE0102969183808300
:1021F600E881F981ED93FC935183408315C0C0813A
:10220600D181CE01029691838083E881F981ED9395
:10221600FC9351834083852F880F880B82838383A9
:10222600848385838683878381E090E002C080E093
:0822360090E0DF91CF910895C3
:10223E00A2E0B0E0E5E2F1E10C942F151C014B0198
:10224E00FA01DB0112962D913C91139714964D9045
:10225E005C9015978D919C9111979A838983169610
:10226E006D907C90179737FD03C08D7F9A8389837D
:10227E00008111812281338144815581668177816C
:10228E00FE0131965F0188E0C82ED12C7201C40187
:10229E000E94E10D298124FF06C00197F301E80F8A
:1022AE00F91F20E32083298123FF06C00197F30144
:1022BE00E80FF91F20E22083E980FA80D4011896F6
:1022CE002D913C91199721503109281B390B860D00
:1022DE00971DAC0160E88201C1010E94BD0F9C01F7
:1022EE00F1018081918190FF08C0D40112968D91E9
:1022FE009C911397821793070CF4C9012296E2E181
:04230E000C944B15CB
:102312000FC00E94831638F00E948A1620F095237F
:1023220011F00C9498160C94B01611240C94921679
:102332000E94CF1470F3959FC1F3950F50E0551F83
:10234200629FF001729FBB27F00DB11D639FAA2708
:10235200F00DB11DAA1F649F6627B00DA11D661F57
:10236200829F2227B00DA11D621F739FB00DA11D78
:10237200621F839FA00D611D221F749F3327A00D32
:10238200611D231F849F600D211D822F762F6A2FCE
:1023920011249F5750409AF0F1F088234AF0EE0F33
:1023A200FF1FBB1F661F771F881F91505040A9F760
:1023B2009E3F510580F00C9498160C9492165F3F44
:1023C200E4F3983ED4F3869577956795B795F7959C
:1023D200E7959F5FC1F7FE2B880F911D9695879514
:0423E20097F90895CA
:1023E60011C00E94831638F00E948A1620F039F434
:1023F6009F3F19F426F40C94B0160EF4E095E7FB13
:102406000C949816E92F0E94CF1458F3BA17620756
:1024160073078407950720F079F4A6F50C949116B6
:102426000EF4E0950B2EBA2FA02D0B01B9019001E9
:102436000C01CA01A0011124FF27591B99F0593F2D
:1024460050F4503E68F11A16F040A22F232F342F75
:102456004427585FF3CF469537952795A795F040C3
:102466005395C9F77EF41F16BA0B620B730B840BD8
:10247600BAF09150A1F0FF0FBB1F661F771F881F90
:10248600C2F70EC0BA0F621F731F841F48F48795E8
:1024960077956795B795F7959E3F08F0B0CF9395DA
:0E24A600880F08F09927EE0F979587950895F7
:1024B4002F923F924F926F927F928F92AF92BF92E0
:1024C400CF92DF92EF92FF920F931F93CF93DF93FC
:1024D400CDB7DEB727970FB6F894DEBF0FBECDBFDA
:1024E4006C017B013901842E98018CE0282E81E057
:1024F400382E80E0482E87E0F101AE014F5F5F4F38
:10250400DA01742D0E942B16F70102811381A48035
:10251400B580E080F18061147104810419F43A01FA
:10252400F0E88F2E2115310529F4882DB3010E947E
:10253400B0159C0117FD04C00217130708F4980195
:102544008501682DA301C6010E94BD0F27960FB611
:10255400F894DEBF0FBECDBFDF91CF911F910F91D5
:10256400FF90EF90DF90CF90BF90AF908F907F90CF
:0A2574006F904F903F902F90089554
:10257E00A2E0B0E0E5ECF2E10C942F153C014B012A
:10258E00FA01DB0112962D913C91139714964D9002
:10259E005C9015978D919C9111979A8389831696CD
:1025AE002D903C90179737FD03C08D7F9A838983BA
:1025BE000081118122813381448155816681778129
:1025CE00FE0131965F018AE0C82ED12C7201C40142
:1025DE000E94E10DE980FA80D40118962D913C916C
:1025EE00199721503109281B390B820D931DAC010F
:1025FE0060E88201C3010E94BD0F9C01F30180813E
:10260E00918190FF08C0D40112968D919C911397E1
:10261E00821793070CF4C9012296E2E10C944B1534
:10262E0088249924F401E401B0E49F93AA279A1513
:10263E008B049C04ED05FE05CF05D007A10798F489
:10264E00AD2FDC2FCF2FFE2FE92D982C892E982F12
:10265E00872F762F652F542F432F322F2227B850D6
:10266E0031F7BF9127C01B2EBF91BB27220F331FFF
:10267E00441F551F661F771F881F991F881C991CA2
:10268E00EE1FFF1FCC1FDD1FAA1FBB1F8A149B044A
:10269E00EC05FD05CE05DF05A007B10748F08A1849
:1026AE009B08EC09FD09CE09DF09A00BB10B2160D7
:1026BE001A94E1F62EF49401AF01BE01CD01000C87
:0226CE0008956D
:1026D000CF92DF92EF92DC0190E0292F30E0220FC1
:1026E000331F6901032E000CEE086E2DA601425324
:1026F0005F4F6F4F6A01E62EFA018491E7FC8081FB
:1027000081110DC02F5F3F4F032E000C440B22534D
:102710003F4F4F4FF901849147FD808124C0CD90F8
:10272000DD90EC901297F6014491E7FC4081841310
:1027300015C02F5F3F4F032E000C440B22533F4F19
:102740004F4FF901949147FD90815FEFC51AD50A6B
:10275000E50ACD92DD92EC92129701C09F5F9B300B
:0E27600008F4BBCF892FEF90DF90CF90089543
:10276E000F931F93CF93DF93DB012D913C91119724
:10277E0030FF25C017964D915C91189715962D91A7
:10278E003C9116974217530778F41296ED91FC91EF
:10279E001397808312962D913C9113972F5F3F4F85
:1027AE0013963C932E93129717962D913C91189752
:1027BE002F5F3F4F18963C932E93179715C01D967B
:1027CE00ED91FC911E97309719F48FEF9FEF0CC08F
:1027DE008B01EC010995892BC1F7F8018781908552
:1027EE00019690878783CE01DF91CF911F910F9134
:0227FE0008953C
:10280000CF939B01482FF901849147FD808180324D
:10281000C9F1682F082E000C770B695071096530DB
:10282000710580F18B3249F5A0E0B0E02F5F3F4F9A
:102830004F4F02C0A0E0B0E080E090E0CAE0F901B4
:10284000649147FD6081062E000C770B605371097F
:102850006A30710560F4C89FF001C99FF00D112422
:102860002F5F3F4F4F4FCF01861B970BE8CFAB2B0E
:1028700069F491958195910909C08D32D9F6A1E04D
:10288000B0E0D4CF2F5F3F4F4F4FBDCFCF910895D2
:102890006F927F928F92CF92DF92EF920F931F935E
:1028A000CF93DF938C016A01E62EE9013A01862E6F
:1028B000620E731E811C37FD8A94C614D704E80487
:1028C00079F0F6018491E7FC8081B801082E000CB4
:1028D000990B0E94B7138FEFC81AD80AE80AEDCFF8
:1028E000CE01DF91CF911F910F91EF90DF90CF90AC
:0828F0008F907F906F90089516
:1028F8000E94D71488F09F5798F0B92F9927B7519D
:10290800B0F0E1F0660F771F881F991F1AF0BA958B
:10291800C9F714C0B13091F00E949116B1E0089542
:102928000C949116672F782F8827B85F39F0B93F34
:10293800CCF3869577956795B395D9F73EF490953E
:0E2948008095709561957F4F8F4F9F4F08953A
:10295600990F0008550FAA0BE0E8FEEF16161706AA
:10296600E807F907C0F012161306E407F50798F012
:10297600621B730B840B950B39F40A2661F0232B2B
:10298600242B252B21F408950A2609F4A140A695A7
:082996008FEF811D811D0895E2
:10299E0057FD9058440F551F59F05F3F71F0479502
:1029AE00880F97FB991F61F09F3F79F087950895E7
:1029BE00121613061406551FF2CF4695F1DF08C006
:1029CE00161617061806991FF1CF86957105610523
:0429DE0008940895BC
:1029E200FA0160387105CCF0623871051CF0633869
:1029F200710599F4A081B1819D012C5F3F4F318314
:102A020020834D915D916D917C91FC0140835183B6
:102A12006283738381E090E0089580E090E00895FE
:102A220097FB10F8169400080F93083098F008509E
:102A3200232F342F452F562F672F782F892F902D34
:102A4200F4CF059497958795779567955795479510
:0C2A5200379527950A95AAF70F91089573
:102A5E002F923F924F925F926F927F928F929F92A0
:102A6E00AF92BF92CF92DF92EF92FF920F931F938E
:102A7E00CF93DF93CDB7DEB7CA1BDB0B0FB6F8943F
:082A8E00DEBF0FBECDBF0994AD
:102A96002A88398848885F846E847D848C849B84E8
:102AA600AA84B984C884DF80EE80FD800C811B81F6
:102AB600AA81B981CE0FD11D0FB6F894DEBF0FBE25
:062AC600CDBFED010895F3
:102ACC008FEF8AB9C0E012C084E091E0A0E0AF9330
:102ADC009F938F931F921F92CF930E947F15CF5F6E
:102AEC000F900F900F900F900F900F90CA3060F3D3
:022AFC00E9CF20
:102AFE00A0E0B0E0E5E8F5E10C943F159E012B5FF8
:102B0E003F4FF9014191519161919F01E091020175
:102B1E00F0910301808191810E949815E2E00C945E
:022B2E005B1535
:102B3000A2E0B0E0EEE9F5E10C943D158C013A839A
:102B400029839E012F5F3F4F0E948D00F801208155
:102B500024FF02C08FEF9FEF2296E4E00C945915FA
:102B6000CF92DF92EF926B01E82EA82FCB01FC01F0
:102B70002491A7FD2081222319F00196A11DF7CFF2
:0C2B80008C199D09EF90DF90CF90089514
:102B8C0097FB072E16F4009407D077FD09D00E940E
:102B9C00DA1507FC05D03EF4909581959F4F08956A
:082BAC00709561957F4F0895BB
:102BB400AA1BBB1B51E107C0AA1FBB1FA617B7075F
:102BC40010F0A61BB70B881F991F5A95A9F780957B
:082BD4009095BC01CD010895AC
:102BDC00092E0394000C11F4882352F0BB0F40F41F
:102BEC00BF2B11F460FF04C06F5F7F4F8F4F9F4F5F
:022BFC0008953A
:102BFE00609570958095909530954095509521955E
:102C0E003F4F4F4F5F4F6F4F7F4F8F4F9F4F0895E7
:102C1E009A01462FDC01F901549147FD50815D93D5
:0C2C2E002F5F3F4F4F4F5111F6CF08951C
:102C3A00689401C0E8948F929F92CF93DF930E9489
:0C2C4A001713DF91CF919F908F90089599
:102C5600992777FD05C005900D920197E1F7089534
:0A2C660001900D920197E1F7089527
:102C70000024A7FD00942A17300540055005600583
:082C8000700580059005089520
:102C88000024A7FD00942A0F301D401D501D601D13
:082C9800701D801D901D0895C0
:102CA000EC010E94B8160E94B716CE010E94B91618
:062CB000CE010E94B516E2
:102CB600FC01480F591FE417F50711F06193FBCF8C
:022CC60008956F
:102CC8009C01215631092A31310510F48F75992755
:022CD80008955D
:102CDA009C01215431092A31310508F48062089592
:0E2CEA005058BB27AA270E94F3110C94EE1538
:0E2CF8000E947C146894B1110C9492160895F9
:0E2D060000240A9416161706180609060895EA
:0E2D140000240A9412161306140605060895EC
:0E2D2200E894BB2766277727CB0197F9089521
:0C2D300097F99F6780E870E060E008956C
:0A2D3C000E94AB1408F481E0089532
:0A2D46000E94AB1408F48FEF08950B
:082D50000E9444100C94EE15E2
:082D58000E9489110C94EE1594
:062D60009FEF80EC0895D6
:042D66000C940000C9
:042D6A000E9465005E
:022D6E000895C6
:022D70000895C4
:022D72000895C2
:022D7400040158
:00000001FF
