:100000000C9434000C9449000C9449000C94490061
:100010000C9449000C9449000C9449000C9449003C
:100020000C9449000C9449000C9449000C9449002C
:100030000C9449000C9449000C9449000C9449001C
:100040000C9449000C9449000C9449000C9449000C
:100050000C9449000C9449000C9449000C944900FC
:100060000C9449000C94490011241FBECFEFD8E036
:10007000DEBFCDBF11E0A0E0B1E0E6EAF2E002C0F1
:1000800005900D92A831B107D9F70E943E010C945A
:1000900051010C940000982F907F9BB995B19E7FE1
:1000A00095B99BB192609BB995E09A95F1F70000E4
:1000B0009BB19D7F9BB9EFE8F1E03197F1F700C06C
:1000C0000000880F8BB98BB182608BB9F5E0FA958F
:1000D000F1F700008BB18D7F8BB98FE891E001972C
:1000E000F1F700C000000895982F907F9BB995B15B
:1000F000916095B99BB192609BB995E09A95F1F7A3
:1001000000009BB19D7F9BB9880F8BB98BB182603A
:100110008BB985E08A95F1F700008BB18D7F8BB9A3
:100120008FE891E00197F1F700C0000008958FEF8C
:100130008AB984B98BB18D7F8BB983E30E944B0060
:1001400082E30E944B0088E20E944B008EE00E94F6
:100150004B0081E00E944B008FE39FE10197F1F794
:1001600000C0000086E00E944B000895CF93DF930B
:1001700000D000D0CDB7DEB790E8998390EC9A8399
:1001800094E99B8394ED9C83E62FF0E0319721E086
:1001900030E02C0F3D1FE20FF31F9081890F81503B
:1001A0000E944B008FE891E00197F1F700C000003A
:1001B0000F900F900F900F90DF91CF9108950F93B4
:1001C0001F93CF938C01C0E003C00E947400CF5FE7
:1001D000F801EC0FF11D80818111F7CFCF911F91B4
:1001E0000F91089561E081E00E94B60080E091E007
:1001F0000E94DF0062E081E00E94B60080E091E0B2
:100200000E94DF0080E00E944B0008950F931F932F
:10021000CF93DF938C010E94F200F801019000203F
:10022000E9F73197DE2FD01BD13208F0D0E261E040
:1002300081E00E94B600C0E007C0F801EC0FF11D9C
:1002400080810E947400CF5FCD1710F4C031A8F3F5
:10025000D13178F062E081E00E94B600C0E107C0D1
:10026000F801EC0FF11D80810E947400CF5FCD1763
:10027000B8F3DF91CF911F910F9108950E949700DD
:1002800081E191E00E9406018BB18E6F8BB92FEF57
:1002900083ED90E3215080409040E1F700C00000E2
:0602A000F3CFF894FFCF3C
:1002A6002020202020202020202020202020202048
:0802B6000048656C6C6F21002B
:00000001FF
