:100000000C9434000C9449000C9449000C94490061
:100010000C9449000C9449000C9449000C9449003C
:100020000C9449000C9449000C9449000C9449002C
:100030000C9449000C9449000C9449000C9449001C
:100040000C9449000C9449000C9449000C9449000C
:100050000C9449000C9449000C9449000C944900FC
:100060000C9449000C94490011241FBECFEFD8E036
:10007000DEBFCDBF11E0A0E0B1E0EEE7F2E002C0EC
:1000800005900D92A234B107D9F70E9408010C9493
:100090003D010C9400009BB19F70282F207F922B74
:1000A0009BB99BB19E7F9BB99BB19D7F9BB99BB137
:1000B00094609BB935E33A95F1F700009BB19B7FC3
:1000C0009BB9EFEDFEE23197F1F700C000002BB1D4
:1000D000F0E18F9FC0011124922F9F70892B8BB963
:1000E0008BB184608BB935E33A95F1F700008BB1A1
:1000F0008B7F8BB98FED9EE20197F1F700C0000076
:1001000008959BB19F70282F207F922B9BB99BB1A4
:1001100091609BB99BB19D7F9BB99BB194609BB94A
:1001200035E33A95F1F700009BB194609BB92BB190
:1001300030E1839FC0011124922F9F70892B8BB9CE
:100140008BB184608BB985E38A95F1F700008BB1A0
:100150008B7F8BB98FED9EE20197F1F700C0000015
:1001600008958FEF8AB98BB18B7F8BB983E30E949F
:100170004B0082E30E944B0088E20E944B008EE01D
:100180000E944B0081E00E944B008FE39FE10197AA
:10019000F1F700C000000895CF93DF9300D000D0A6
:1001A000CDB7DEB790E8998390EC9A8394E99B836E
:1001B00094ED9C83E62FF0E0319721E030E02C0FA6
:1001C0003D1FE20FF31F9081890F81500E944B0069
:1001D0008FE99FE00197F1F700C000000F900F90AA
:1001E0000F900F90DF91CF9108950F931F93CF93AE
:1001F0008C01C0E003C00E948100CF5FF801EC0FCA
:10020000F11D80818111F7CFCF911F910F9108953A
:100210000E94B10062E081E00E94CC0080E091E0A9
:100220000E94F50062E081E00E94CC0081E191E053
:100230000E94F5002FEF8BE792E92150804090401B
:10024000E1F700C0000061E081E00E94CC0083E2A1
:1002500091E00E94F50062E081E00E94CC0084E31E
:1002600091E00E94F5002FEF8BE792E9215080404A
:0E0270009040E1F700C00000CDCFF894FFCF22
:10027E0054686520776F726C6420697320627574A0
:10028E00006F6E6520636F756E747279202020206A
:10029E00202000616E64206D616E6B696E64206952
:1002AE0074732000636974697A656E732020202050
:0202BE0020001E
:00000001FF
