:100000000C9434000C9451000C9451000C94510049
:100010000C9451000C9451000C9451000C9451001C
:100020000C9451000C9451000C9451000C9451000C
:100030000C9451000C9451000C9451000C945100FC
:100040000C9451000C9451000C9451000C945100EC
:100050000C9451000C9451000C9451000C945100DC
:100060000C9451000C94510011241FBECFEFD8E026
:10007000DEBFCDBF11E0A0E0B1E0E6EAF6E002C0ED
:1000800005900D92AE35B107D9F721E0AEE5B1E0AC
:1000900001C01D92A436B207E1F70E9460000C94E3
:1000A00051030C940000CF93C62F0E94820282E479
:1000B00091E00E946F028C2F0E948202CF910895DE
:1000C000CF93DF9300D01F92CDB7DEB78FEF8AB901
:1000D00084B917B881E088B982E189831A821B82CA
:1000E0000E9427020E949B020E94D9028091000177
:1000F00090910101892B09F047C061E081E00E94E5
:1001000046028AE391E00E946F0280E00E943F0372
:100110008039914098F480E00E943F03893C91052A
:1001200068F08A8181508A838FEF90E722E08150C6
:1001300090402040E1F700C0000018C080E00E941D
:100140003F03853E924090F080E00E943F03803262
:10015000934060F48A818F5F8A838FEF90E722E07B
:10016000815090402040E1F700C000008FEF91EEF9
:1001700024E0815090402040E1F700C000004B8116
:100180006A8189810E94F6028091000190910101AB
:10019000019709F07AC061E081E00E94460284E4A0
:1001A00091E00E946F0262E081E00E944602E091CD
:1001B0006001F0916101EE0FFF1FEE5FFE4F808145
:1001C0000E94820282E491E00E946F02E09162014B
:1001D000F0916301EE0FFF1FEE5CFE4F80810E94E5
:1001E0008202E0916001F0916101EE0FFF1FEE5F6E
:1001F000FE4F8081AEE5B1E08C93E0916201F09119
:100200006301EE0FFF1FEE5CFE4F808111968C9311
:1002100080E00E943F0380399140C8F480E00E9452
:100220003F03893C910598F08091620190916301B0
:10023000019790936301809362018FEF91EE24E028
:10024000815090402040E1F700C000001EC080E0D7
:100250000E943F03853E9240C0F080E00E943F0331
:100260008032934090F480916201909163010196F5
:1002700090936301809362018FEF91EE24E08150AF
:1002800090402040E1F700C0000080916201909111
:10029000630104976CF010926301109262018091E7
:1002A00060019091610101969093610180936001DA
:1002B000809162019091630199237CF483E090E046
:1002C000909363018093620180916001909161013C
:1002D00001979093610180936001809160019091FA
:1002E0006101992334F487E190E090936101809358
:1002F00060018091600190916101489724F0109213
:100300006101109260018A81811105C089E58A83AB
:100310008981815089838A818A3520F01A82898176
:100320008F5F89838981843208F01982AE014D5F25
:100330005F4FBE016E5F7F4FCE0101960E9410039A
:100340008FEF91EE24E0815090402040E1F700C013
:10035000000061E08CE00E9446026A8189810E946F
:100360005300C4CE982F907F9BB995B19E7F95B9CD
:1003700095B19D7F95B995B1946095B995E39A959E
:10038000F1F7000095B19B7F95B9EFEDFEE2319753
:10039000F1F700C000008295807F8BB985B1846041
:1003A00085B9F5E3FA95F1F7000085B18B7F85B942
:1003B0008FED9EE20197F1F700C000000895982F9D
:1003C000907F9BB995B1916095B995B1946095B9BD
:1003D00095E39A95F1F7000095B19B7F95B98295C9
:1003E000807F8BB985B1846085B985E38A95F1F703
:1003F000000085B18B7F85B98FE99FE00197F1F708
:1004000000C000000895982F907F9BB995B191602E
:1004100095B995B1946095B995E39A95F1F7000077
:1004200095B19B7F95B98295807F8BB985B18460AA
:1004300085B985E38A95F1F7000085B18B7F85B991
:100440008FE99FE00197F1F700C0000008958FEF5A
:100450008AB984B985B18B7F85B983E30E94B201E3
:1004600082E30E94B20188E20E94B2018EE00E9403
:10047000B20181E00E94B2018FE39FE10197F1F7A1
:1004800000C0000086E00E94B2010895CF93DF9380
:1004900000D000D0CDB7DEB790E8998390EC9A8376
:1004A00094E99B8394ED9C83E62FF0E0319721E063
:1004B00030E02C0F3D1FE20FF31F9081890F815018
:1004C0000E94B2018FE99FE00197F1F700C00000A0
:1004D0000F900F900F900F90DF91CF9108950F9391
:1004E0001F93CF938C01C0E003C00E94DF01CF5F58
:1004F000F801EC0FF11D80818111F7CFCF911F9191
:100500000F910895CF93982F92959F70C82FCF7019
:1005100080E3890FC05DC03318F48FE2890FC9E30F
:10052000CA3310F08F5FC0E30E9403028C2F0E9439
:100530000302CF91089560E080E00E9446028DE4BE
:1005400091E00E946F0260E081E00E9446028DE42B
:1005500091E00E946F02089584E98093BC000895A1
:100560008093BB0084E88093BC008091BC0088230A
:10057000E4F7089520E4829FC001112484688093E9
:10058000BC008091BC008823E4F78091BB000895F3
:1005900084EA8093BC008091BC008823E4F708952E
:1005A0001092B90088E98093B80084E08093BC0081
:1005B00008950E94D0020E94C8028EED0E94B002EF
:1005C00087E00E94B00280E00E94B0020E94AC026C
:1005D0000E94C8028EED0E94B00280E00E94B0022C
:1005E00080E40E94B0020E94AC0208951F93CF9352
:1005F000DF93C82FD62F142F0E94C8028EED0E94C1
:10060000B002812F0E94B0028D2F0E94B0028C2F69
:100610000E94B0020E94AC02DF91CF911F91089519
:10062000EF92FF920F931F93CF93DF93EC018B0117
:100630007A010E94C8028EED0E94B00280E00E9402
:10064000B0020E94AC020E94C8028FED0E94B0026C
:1006500081E00E94BA02F701808381E00E94BA0221
:10066000F801808380E00E94BA0288830E94AC0275
:10067000DF91CF911F910F91FF90EF9008958064CB
:1006800080937C0087EC80937A0080917A0084FFCD
:10069000FCCF80E180937A0080917800909179007E
:0606A0000895F894FFCF5D
:1006A600010000000100020003000400050006002E
:1006B60007000800090010001100120013001400C2
:1006C600150016001700180019002000210022004E
:1006D600230000001500300045005365742074693E
:1006E6006D653A00426F78203126352000202020A3
:0E06F600202020202020202020202020200056
:00000001FF
