S014000048572D6C656B74696F6E31352E73726563E8
S11300000C9434000C9449000C9449000C9449005D
S11300100C9449000C9449000C9449000C94490038
S11300200C9449000C9449000C9449000C94490028
S11300300C9449000C9449000C9449000C94490018
S11300400C9449000C9449000C9449000C94490008
S11300500C9449000C9449000C9449000C944900F8
S11300600C9449000C94490011241FBECFEFD8E032
S1130070DEBFCDBF11E0A0E0B1E0E0EFF0E002C0F0
S113008005900D92AC30B107D9F70E945C000C9436
S113009076000C94000088E08093C10086E0809391
S11300A0C20087E68093C40008959091C00095FF34
S11300B0FCCF8093C60008950E944B00C0E013C09B
S11300C0EC2FF0E0E050FF4F80810E945500CD30CE
S11300D049F42FEF83ED90E3215080409040E1F705
S11300E000C00000CF5FCE3058F3E8CFF894FFCFC4
S10F00F048454C4C4F21204A4F434B45DF
S9030000FC
