:100000000C9434000C943E000C943E000C943E0082
:100010000C943E000C943E000C943E000C943E0068
:100020000C943E000C943E000C943E000C943E0058
:100030000C943E000C943E000C943E000C943E0048
:100040000C943E000C943E000C943E000C943E0038
:100050000C943E000C943E000C943E000C943E0028
:100060000C943E000C943E0011241FBECFEFD8E04C
:10007000DEBFCDBF0E9454000C9464000C940000BD
:100080009093C5008093C40088E18093C10086E00E
:100090008093C20084E08AB908958091C0008823CB
:1000A000E4F78091C600089587E690E00E94400042
:1000B0000E944D008335E1F7C0E003C00E944D006F
:0C00C000CF5FC330D8F3F4CFF894FFCF2B
:00000001FF
