:100000000C9438000C94E2000C94E2000C94E20092
:100010000C94E2000C94E2000C94E2000C94E200D8
:100020000C94E2000C94E2000C94E2000C94E200C8
:100030000C94E2000C94E2000C94E2000C94E200B8
:100040000C94E2000C94E2000C94E2000C94E200A8
:100050000C94E2000C94E2000C94E2000C94E20098
:100060000C94E2000C94E2000100010A0001D200AD
:1000700011241FBECFEFD8E0DEBFCDBFE8E6F0E031
:1000800040E017C0B591A59135912591059107FDE7
:100090000CC095918591EF01F92FE82F05900D92F5
:1000A000A217B307D9F7FE0104C01D92A217B30728
:1000B000E1F7EF36F40731F70E9493000C94CE007D
:0400C000F894FFCFE2
:1000C4000F931F93CF93DF93EC01162F40E01CC0D6
:1000D40001E0040F342F802F0CC0FE01E80FF11D46
:1000E4002081FE01E30FF11D9081291708F4382FB8
:1000F4008F5F811790F3BE01640F711DCE01830FD2
:10010400911D0E94D900402F242F30E0812F90E0D0
:10011400019728173907E4F2DF91CF911F910F91CE
:0201240008953C
:10012600CF93DF93CDB7DEB72A970FB6F894DEBF2D
:100136000FBECDBF8FEF8AB98AE0E0E0F1E0DE01C5
:10014600119601900D928A95E1F76AE0CE0101962B
:100156000E94C2006AE0CE0101960E9462006AE037
:10016600CE0101960E94C20080E090E02A960FB66A
:0E017600F894DEBF0FBECDBFDF91CF9108958C
:10018400AC0190E006C0FA01E90FF11D20812BB902
:080194009F5F9617C0F3089568
:10019C00EC010E94E7000E94E600CE010E94E800FC
:0601AC00CE010E94E400F8
:1001B200FC012081FB013081FC013083FB012083A3
:0201C20008959E
:0401C4000C94000097
:0401C8000E94600031
:0201CC00089594
:0201CE00089592
:0201D000089590
:0A01D200642814321E3C50460A5AFD
:00000001FF
