:100000000C9434000C9452000C9452000C94520046
:100010000C9452000C9452000C9452000C94520018
:100020000C9452000C9452000C9452000C94520008
:100030000C9452000C9452000C9452000C945200F8
:100040000C9452000C9452000C9452000C945200E8
:100050000C9452000C9452000C9452000C945200D8
:100060000C9452000C94520011241FBECFEFD8E024
:10007000DEBFCDBF0E944B000C944000F894FFCF30
:10008000EC010E9457000E945600CE010E945800C9
:06009000CE010E945400A5
:0E0096001AB814B885B18130E9F789B1FBCFF3
:0400A4000C940000B8
:0400A8000E943E0074
:0200AC000895B5
:0200AE000895B3
:0200B0000895B1
:00000001FF
