:100000000C9434000C9451000C9451000C94510049
:100010000C9418010C9451000C9451000C94510054
:100020000C9451000C9451000C9451000C9451000C
:100030000C9451000C9451000C9451000C945100FC
:100040000C9451000C9451000C9451000C945100EC
:100050000C9451000C9451000C9451000C945100DC
:100060000C9451000C94510011241FBECFEFD8E026
:10007000DEBFCDBF11E0A0E0B1E0EEE5FBE002C0E5
:1000800005900D92A830B107D9F721E0A8E0B1E0C2
:1000900001C01D92AE30B207E1F70E9405010C9439
:1000A000AD050C9400008BB985B18E7F85B985B103
:1000B0008D7F85B985B1846085B983E08A95F1F734
:1000C000000085B18B7F85B98DEE92E00197F1F745
:1000D00000C0000008958BB985B1816085B985B1F4
:1000E0008D7F85B985B1846085B983E08A95F1F704
:1000F000000085B18B7F85B98DEE92E00197F1F715
:1001000000C000000895CF93CFEFCAB987E084B94B
:1001100088E385B985B18B7F85B983EF91E001973D
:10012000F1F700C0000088E30E9453008EE00E94B7
:10013000530081E00E94530083EF91E00197F1F7B3
:1001400000C0000086E00E945300C7B987B18F7DD0
:1001500087B988B1806288B988B18F7E88B9E4E6B2
:10016000F0E08081877F8083109285001092840068
:10017000E1E8F0E080818160808380818064808319
:1001800082E08093680080E280936C007894CF9145
:100190000895CF93DF9300D000D0CDB7DEB790E8BD
:1001A000998390EC9A8394E99B8394ED9C83E62F4A
:1001B000F0E0319721E030E02C0F3D1FE20FF31FFC
:1001C0009081890F81500E94530089EF90E0019740
:1001D000F1F700C000000F900F900F900F90DF918B
:1001E000CF9108950F931F93CF938C01C0E003C06C
:1001F0000E946B00CF5FF801EC0FF11D808181112F
:10020000F7CFCF911F910F9108950E94830087E946
:100210009AE30197F1F700C0000088B1806188B9C6
:1002200093E09A95F1F7000088B18F7E88B9EFCFFF
:100230001F920F920FB60F921124FF920F931F93EC
:100240002F933F934F935F936F937F938F939F93DE
:10025000AF93BF93EF93FF93CF93DF93CDB7DEB709
:100260002697DEBFCDBF359B08C010928500109247
:10027000840088B1886088B95FC060918400709103
:10028000850080E090E0FFB62AE330E040E050E0F7
:100290000E94A102CA01B9010E94EE010E9454020B
:1002A0000E94B8017F936F9380E091E09F938F93BA
:1002B000CE0101969F938F930E94C3020F900F90DF
:1002C0000F900F900F900F9000E010E01DC0F8010C
:1002D000E85FFE4F9081E1E0F0E0EC0FFD1FE00FE2
:1002E000F11F8081981719F081E00E945300E1E02E
:1002F000F0E0EC0FFD1FE00FF11F8081F801E85FD7
:10030000FE4F80830F5F1F4F0630110500F361E041
:1003100081E00E94C90083E091E00E94F20061E068
:1003200085E00E94C90088E091E00E94F20083E528
:100330008A95F1F70000FFBE26960FB6F894DEBF4F
:100340000FBECDBFDF91CF91FF91EF91BF91AF91E4
:100350009F918F917F916F915F914F913F912F91DD
:100360001F910F91FF900F900FBE0F901F90189547
:100370000E94BF016894B1110C944E0208950E942E
:10038000330288F09F5798F0B92F9927B751B0F0F2
:10039000E1F0660F771F881F991F1AF0BA95C9F709
:1003A00014C0B13091F00E944D02B1E008950C9458
:1003B0004D02672F782F8827B85F39F0B93FCCF30B
:1003C000869577956795B395D9F73EF49095809586
:1003D000709561957F4F8F4F9F4F0895E89409C0A6
:1003E00097FB3EF490958095709561957F4F8F4F68
:1003F0009F4F9923A9F0F92F96E9BB279395F6957E
:10040000879577956795B795F111F8CFFAF4BB0FFB
:1004100011F460FF1BC06F5F7F4F8F4F9F4F16C05F
:10042000882311F096E911C0772321F09EE8872FE9
:10043000762F05C0662371F096E8862F70E060E0A5
:100440002AF09A95660F771F881FDAF7880F96951E
:10045000879597F9089557FD9058440F551F59F007
:100460005F3F71F04795880F97FB991F61F09F3FA1
:1004700079F087950895121613061406551FF2CFCA
:100480004695F1DF08C0161617061806991FF1CF1A
:1004900086957105610508940895E894BB27662741
:1004A0007727CB0197F908950E943302E8F09E3731
:1004B000E8F09639B8F49E3848F4672F782F8827EB
:1004C000985FF9CF86957795679593959539D0F391
:1004D000B62FB1706B0F711D811D20F48795779534
:1004E000679593950C9478020C9493020C944E02A9
:1004F000882371F4772321F09850872B762F07C03B
:10050000662311F499270DC09051862B70E060E0AE
:100510002AF09A95660F771F881FDAF7880F96954D
:10052000879597F908959F3F31F0915020F4879572
:1005300077956795B795880F911D9695879597F94B
:100540000895A1E21A2EAA1BBB1BFD010DC0AA1F14
:10055000BB1FEE1FFF1FA217B307E407F50720F02C
:10056000A21BB30BE40BF50B661F771F881F991FA7
:100570001A9469F760957095809590959B01AC01F0
:10058000BD01CF010895AEE0B0E0E9ECF2E00C94DB
:1005900084050D891E8986E08C831A8309838FEF79
:1005A0009FE79E838D83AE01475E5F4F6F89788D95
:1005B000CE0101960E94E502EF81F885E00FF11F60
:1005C00010822E96E4E00C94A005ABE0B0E0EBEED8
:1005D000F2E00C9476056C017B018A01FC01178224
:1005E0001682838181FFCCC1CE0101963C01F601C8
:1005F0009381F70193FD859193FF81917F0188237A
:1006000009F4BAC1853239F493FD859193FF819144
:100610007F01853229F4B60190E00E94DC04E7CF27
:10062000912C212C312CFFE1F315D8F08B3279F08D
:1006300038F4803279F08332A1F4232D20611DC07B
:100640008D3261F0803369F4232D216016C0832D33
:100650008260382EE32DE4603E2E2AC0F32DF86030
:100660001DC037FC2DC020ED280F2A3040F08E32FF
:10067000B9F436FC81C1232D2064322E19C036FE18
:1006800006C08AE0989E200D1124922E11C0EAE047
:100690002E9E200D1124222EF32DF0623F2E08C035
:1006A0008C3621F4832D8068382E02C0883641F4C0
:1006B000F70193FD859193FF81917F018111B3CF64
:1006C000982F9F7D9554933028F40C5F1F4F9FE324
:1006D00099830DC0833631F0833771F0833509F08B
:1006E00059C021C0F801808189830E5F1F4F882483
:1006F0008394912C530113C02801F2E04F0E511C3A
:10070000F801A080B18036FE03C0692D70E002C000
:100710006FEF7FEFC5010E94D1044C018201F32DE0
:10072000FF773F2E16C0280122E0420E511CF8012F
:10073000A080B18036FE03C0692D70E002C06FEF6B
:100740007FEFC5010E94C6044C01F32DF0683F2ED7
:10075000820133FC1BC0822D90E088169906B0F40C
:10076000B60180E290E00E94DC042A94F4CFF50107
:1007700037FC859137FE81915F01B60190E00E94C0
:10078000DC0421102A9421E0821A9108811491043A
:1007900071F7E8C0843611F0893641F5F80137FE6B
:1007A00007C060817181828193810C5F1F4F08C0F7
:1007B00060817181072E000C880B990B0E5F1F4F13
:1007C000F32DFF763F2E97FF09C090958095709589
:1007D00061957F4F8F4F9F4FF0683F2E2AE030E0AA
:1007E000A3010E941805882E861845C0853731F46C
:1007F000232D2F7EB22E2AE030E025C0932D997F45
:10080000B92E8F36C1F018F4883579F0B5C080372D
:1008100019F0883721F0B0C0E92FE061BE2EB4FE98
:100820000DC0FB2DF460BF2E09C034FE0AC0292F75
:100830002660B22E06C028E030E005C020E130E09E
:1008400002C020E132E0F801B7FE07C0608171818B
:10085000828193810C5F1F4F06C06081718180E0AF
:1008600090E00E5F1F4FA3010E941805882E861886
:10087000FB2DFF773F2E36FE0DC0232D2E7FA22E9F
:10088000891458F434FE0BC032FC09C0832D8E7ECF
:10089000A82E05C0B82CA32C03C0B82C01C0B92CBD
:1008A000A4FE0FC0FE01E80DF11D8081803321F40C
:1008B0009A2D997EA92E09C0A2FE06C0B394B394C6
:1008C00004C08A2D867809F0B394A3FC11C0A0FE61
:1008D00006C0B21488F4280C922C9B180EC0B214D7
:1008E00060F4B60180E290E00E94DC04B394F7CF9C
:1008F000B21418F42B1802C0982C212CA4FE10C09E
:10090000B60180E390E00E94DC04A2FE17C0A1FCC7
:1009100003C088E790E002C088E590E0B6010CC013
:100920008A2D867859F0A1FE02C08BE201C080E2D8
:10093000A7FC8DE2B60190E00E94DC04891438F433
:10094000B60180E390E00E94DC049A94F7CF8A9489
:10095000F301E80DF11D8081B60190E00E94DC04F6
:100960008110F5CF222009F442CEB60180E290E05A
:100970000E94DC042A94F6CFF6018681978102C09A
:100980008FEF9FEF2B96E2E10C949205FC0105900E
:10099000615070400110D8F7809590958E0F9F1F81
:1009A0000895FC016150704001900110D8F78095C6
:1009B00090958E0F9F1F08950F931F93CF93DF93F2
:1009C000FB01238121FD03C08FEF9FEF2CC022FF8D
:1009D00016C046815781248135814217530744F45C
:1009E000A081B1819D012F5F3F4F318320838C9384
:1009F000268137812F5F3F4F3783268314C08B01B9
:100A0000EC01FB010084F185E02D0995892BE1F6CD
:100A1000D80116968D919C911797019617969C93E5
:100A20008E931697CE01DF91CF911F910F9108956C
:100A3000FA01AA27283051F1203181F1E8946F930F
:100A40006E7F6E5F7F4F8F4F9F4FAF4FB1E03ED0B5
:100A5000B4E03CD0670F781F891F9A1FA11D680F53
:100A6000791F8A1F911DA11D6A0F711D811D911D86
:100A7000A11D20D009F468943F912AE0269F1124FB
:100A80003019305D3193DEF6CF010895462F47705F
:100A9000405D4193B3E00FD0C9F7F6CF462F4F70BA
:100AA000405D4A3318F0495D31FD4052419302D018
:100AB000A9F7EACFB4E0A6959795879577956795BE
:100AC000BA95C9F700976105710508959B01AC01BE
:100AD0000A2E06945795479537952795BA95C9F7E5
:100AE000620F731F841F951FA01D08952F923F92C0
:100AF0004F925F926F927F928F929F92AF92BF922E
:100B0000CF92DF92EF92FF920F931F93CF93DF93D9
:100B1000CDB7DEB7CA1BDB0B0FB6F894DEBF0FBE36
:100B2000CDBF09942A88398848885F846E847D8483
:100B30008C849B84AA84B984C884DF80EE80FD8085
:100B40000C811B81AA81B981CE0FD11D0FB6F894FB
:0E0B5000DEBF0FBECDBFED010895F894FFCFBC
:080B5E00256400434D3A20001C
:00000001FF
