:100000000C9434000C943E000C943E000C943E0082
:100010000C943E000C943E000C943E000C943E0068
:100020000C943E000C943E000C943E000C943E0058
:100030000C943E000C943E000C943E000C943E0048
:100040000C943E000C943E000C943E000C943E0038
:100050000C943E000C943E000C943E000C943E0028
:100060000C943E000C943E0011241FBECFEFD8E04C
:10007000DEBFCDBF0E9440000C9454000C940000E1
:100080008FEE8AB98FEF87B984B914BC86E085BD3D
:1000900016BC86B58F7E8BB9A89BFBCF81E085BB54
:0C00A00085B18F5F85B9F5CFF894FFCFD4
:00000001FF
