:100000000C9434000C943E000C943E000C943E0082
:100010000C943E000C943E000C943E000C943E0068
:100020000C943E000C943E000C943E000C943E0058
:100030000C943E000C943E000C943E000C943E0048
:100040000C943E000C943E000C943E000C943E0038
:100050000C943E000C943E000C943E000C943E0028
:100060000C943E000C943E0011241FBECFEFD8E04C
:10007000DEBFCDBF0E9468000C9477000C94000096
:100080008093BB0084E88093BC00ECEBF0E08081BF
:10009000208190E8299F9001112490E082239323EE
:1000A000892B99F3089584EA8093BC008091BC0069
:1000B0008823E4F7089584E98093BC0008951092A2
:1000C000B90088E98093B80084E08093BC0008956B
:1000D0008FEF8AB90E945F000E94530080ED0E945A
:1000E000400080EF0E9440000E945B00F5CFF89432
:0200F000FFCF40
:00000001FF
