S01F000061746D656761333238705F6C6962726172795F637070312E7372656362
S11300000C943A000C9462000C9462000C94F2027A
S11300100C941A030C9442030C94E8060C946200AA
S11300200C9462000C9468060C9462000C944306D1
S11300300C9462000C9462000C9462000C946200B4
S11300400C941E060C9462000C9462000C946200E2
S11300500C9462000C9462000C9462000C94620094
S11300600C9462000C9462007D031A049E068403BF
S11300702104A50611241FBECFEFD8E0DEBFCDBFFB
S113008011E0A0E0B1E0E2E1F2E102C005900D92DE
S1130090AE32B107D9F721E0AEE2B1E001C01D9262
S11300A0AE35B207E1F710E0C7E3D0E004C0219712
S11300B0FE010E94F608C433D107C9F70E94FB036E
S11300C00C94FC080C9400004330510560F4611555
S11300D0710559F0440F551FFC01E40FF51F71839E
S11300E0608381E0089580E0089580E00895660FBC
S11300F0771F860F971FFC012081318181E0232B1C
S113010009F480E00895EF92FF921F93CF93DF9359
S11301107C01EB016330710520F40E947700182FF5
S113012001C010E0112339F0CC0FDD1FCE0DDF1D0F
S1130130E881F9810995812FDF91CF911F91FF907B
S1130140EF900895DC01ED91FC91818592850895ED
S11301500F93DC0112960C911297ED91FC91A681FC
S1130160B781EC9121E030E040E050E060E070E0E5
S113017080E090E00E94B3082095E223EC930F9175
S113018008954F925F926F927F928F929F92AF9257
S1130190BF92CF92DF92EF92FF920F93CF93DF93B0
S11301A0EC010A81E881F981A081B181EC9121E01F
S11301B030E040E050E060E070E080E090E00E94D9
S11301C0B3082095E223EC930A81E881F981A281A6
S11301D0B381EC9121E030E040E050E060E070E079
S11301E080E090E00E94B3082095E223EC930A811A
S11301F0EEE2F1E0408051806280738021E030E0E3
S113020040E050E060E070E080E090E00E94B308DD
S1130210822E932EA42EB52E80949094A094B09404
S113022084209520A620B72080829182A282B38266
S1130230CE010E94A800198218821A82DF91CF9100
S11302400F91FF90EF90DF90CF90BF90AF909F9071
S11302508F907F906F905F904F9008950E94C1009F
S113026008950F93CF93FC017894A081B1811896DF
S11302700C91A8E6B0E0CC9121E030E040E050E001
S113028060E070E080E090E00E94B3082C2B2C9397
S113029002810190F081E02D0680F781E02DA0819C
S11302A021E030E040E050E060E070E080E090E089
S11302B00E94B3082A2B2083CF910F9108950F93A6
S11302C0CF93DF93DC011296EC911297CD91DC91E0
S11302D0A881B9812C9130E040E050E060E070E00A
S11302E080E090E00E2F0E94CE08217030E040E0C4
S11302F050E060E070E080E090E0A0E00E94EA0856
S113030049F0AA81BB81FC9121E00E94B3082095A9
S1130310F223FC93DF91CF910F9108950F93CF9324
S1130320DF93DC011296EC911297CD91DC91A881B8
S1130330B9812C9130E040E050E060E070E080E072
S113034090E00E2F0E94CE08217030E040E050E093
S113035060E070E080E090E0A0E00E94EA0841F0F4
S1130360AC81BD81FC9121E00E94B3082F2B2C931A
S1130370DF91CF910F9108950F93DC0112960C91A8
S11303801297ED91FC910480F581E02D208130E0FD
S113039040E050E060E070E080E090E00E94CE0831
S11303A0822F81700F910895DC01ED91FC9182817F
S11303B093818532910539F440E050E082E391E085
S11303C00E94640008958832910539F441E050E0B8
S11303D082E391E00E94640008958B9739F442E02F
S11303E050E082E391E00E946400089580E0089563
S11303F00F931F937894E8E6F0E0A0818C01112715
S113040021E030E040E050E060E070E080E090E027
S11304100E94B3082A2B20831F910F9108950E94F4
S1130420A2000E94F80108950F931F93A8E6B0E07C
S1130430EC918C01112721E030E040E050E060E0D5
S113044070E080E090E00E94B3082095E223EC93F2
S11304501F910F9108950E94A2000E941402089512
S1130460683038F420E031E0FC013183208362837A
S1130470089528EF260F263038F44BE051E0FC01B4
S113048051834083228308956E50663030F420E017
S113049031E0FC0131832083628308950F9361303E
S11304A07105B9F4DC0112960C911297ED91FC914F
S11304B00280F381E02DA08121E030E040E050E0B3
S11304C060E070E080E090E00E94B3082A2B208373
S11304D018C062307105A9F4FC0102810190F08119
S11304E0E02D0190F081E02DA08121E030E040E09A
S11304F050E060E070E080E090E00E94B3082A2BB6
S113050020830F9108954F925F926F927F928F9202
S11305109F92AF92BF92CF92DF92EF92FF920F938E
S1130520DC01E62F7A016431D8F46431B8F44091E7
S11305302E0150912F0160913001709131013A01E7
S11305404B01242F372D482D592D60E070E080E0B9
S113055090E00E2F0E94CE08217003C020E001C05D
S113056021E0211129C067010E2F7D016E2FCD01DD
S11305700E943002B601C7010E944E02EEE2F1E091
S1130580408051806280738021E030E040E050E0A0
S113059060E070E080E090E00E94B308822E932E29
S11305A0A42EB52E84289528A628B7288082918267
S11305B0A282B38281E001C080E00F91FF90EF90AE
S11305C0DF90CF90BF90AF909F908F907F906F906F
S11305D05F904F900895FC011182108212820E9454
S11305E0830208951F920F920FB60F9211242F9336
S11305F03F934F935F936F937F938F939F93AF93A7
S1130600BF93EF93FF9360E070E082E391E00E9478
S11306108300FF91EF91BF91AF919F918F917F9153
S11306206F915F914F913F912F910F900FBE0F905B
S11306301F9018951F920F920FB60F9211242F93AB
S11306403F934F935F936F937F938F939F93AF9356
S1130650BF93EF93FF9361E070E082E391E00E9427
S11306608300FF91EF91BF91AF919F918F917F9103
S11306706F915F914F913F912F910F900FBE0F900B
S11306801F9018951F920F920FB60F9211242F935B
S11306903F934F935F936F937F938F939F93AF9306
S11306A0BF93EF93FF9362E070E082E391E00E94D6
S11306B08300FF91EF91BF91AF919F918F917F91B3
S11306C06F915F914F913F912F910F900FBE0F90BB
S11306D01F90189526E0FC0111922A95E9F70895D8
S11306E00E946A030895019739F46F3F7F4F21F404
S11306F082E391E00E94700308956FEF7FEF81E041
S113070090E00E94730308956FEF7FEF80E090E024
S11307100E94730308958DE491E00E948E01089570
S113072081E491E00E9490048AE491E00E940F0227
S113073008958AE491E00E942B0281E491E00E94F2
S113074069048AE491E00E94BC01882371F088E383
S113075091E00E94B60488E391E00E94660481114E
S113076004C08DE491E00E945F0108950F931F93EC
S1130770CF93DF93EC018B01019719F56F3F7F4F06
S113078001F542E050E069E08DE491E00E94EB0263
S113079041E050E06DE08AE491E00E94EB0220E049
S11307A04CE251E060E070E081E491E00E94A70532
S11307B020E044E650E061E070E088E391E00E94CC
S11307C0A705CD2B99F40F3F1F4F81F488E391E0E7
S11307D00E94F80581E491E00E94F8058AE491E022
S11307E00E942E018DE491E00E942E01DF91CF91B1
S11307F01F910F91089569E973E08AE491E00E94E2
S1130800D40160E973E081E491E00E94BD046BE8E7
S113081073E088E391E00E94BD048AE491E00E94C1
S1130820310186E090E00E94AC060E94BF060E945F
S1130830B806FDCF6FEF7FEF81E090E00E94B60332
S113084008956FEF7FEF80E090E00E94B603089573
S11308504330510560F46115710559F0440F551F7B
S1130860FC01E40FF51F7183608381E0089580E04B
S1130870089580E00895660F771F860F971FFC0187
S11308802081318181E0232B09F480E00895EF92E7
S1130890FF921F93CF93DF937C01EB0163307105CB
S11308A020F40E943B04182F01C010E0112339F0FA
S11308B0CC0FDD1FCE0DDF1DE881F9810995812F55
S11308C0DF91CF911F91FF90EF900895FC018085F7
S11308D008950F93CF93FC01789484819581A68128
S11308E0B781892B8A2B8B2BC1F0A081B1811696FD
S11308F00C91169714960D90BC91A02DCC9121E0EB
S113090030E040E050E060E070E080E090E00E9481
S1130910B3082C2B2C9381E08087CF910F910895FD
S11309200F93CF93DF93DC01ED91FC911197068136
S1130930C481D581E88121E030E040E050E060E00E
S113094070E080E090E00E94B3082095E223E88301
S113095018961C92DF91CF910F910895662319F098
S11309600E94690408950E9490040895FC01608522
S113097021E062270E94AE0408956115710559F0C3
S1130980FC010190F081E02D478150E086E591E083
S11309900E942804089580E00895CF93DF93FC011A
S11309A08085882369F0C081D18188819981AA8159
S11309B0BB810196A11DB11D88839983AA83BB8342
S11309C08085DF91CF9108950F931F93FC0190854B
S11309D0992381F0A081B1810D911D912D913C91BC
S11309E044815581668177810417150726073707E7
S11309F018F403C091E001C090E0911109C0019086
S1130A00F081E02D108211821282138281E001C0F4
S1130A1080E01F910F9108950097A1F0BC0180E040
S1130A2090E00E9425082FE632E143E05EE30E9455
S1130A30840720E030E040E05FE30E9418070E9452
S1130A40F607089560E070E0CB0108950F931F93BB
S1130A50CF93DF938C01EB01209711F40E94900453
S1130A60CE010E940C05F801648375838683978305
S1130A70DF91CF911F910F91089526E0FC0111920F
S1130A802A95E9F70895660F771F860F971F089533
S1130A90CF93DF93EC018A819B81009799F460E006
S1130AA070E080E591E00E944305FC018081918122
S1130AB0892B09F044C082E085BD86E291E09983E8
S1130AC0888330C081309105C9F461E070E080E52D
S1130AD091E00E944305FC0180819181892B89F575
S1130AE08AE08093810080E091E090938900809374
S1130AF088008EE191E09983888314C0029791F471
S1130B0062E070E080E591E00E944305FC01808191
S1130B109181892BC1F482E08093B10086E191E058
S1130B2099838883E881F981678170E080E591E0A9
S1130B300E944305FC01D183C08381E005C080E0AD
S1130B4003C080E001C080E0DF91CF910895EF926F
S1130B50FF921F93CF93DF93EC017A01122F198236
S1130B6018827B836A831C821D821E821F821886E0
S1130B700E944805882349F0B701CE010E9426054A
S1130B80112319F0CE010E946904DF91CF911F91C6
S1130B90FF90EF900895CF93DF93EC018A819B81BE
S1130BA0009711F415BC0EC08130910539F41092F0
S1130BB08100109289001092880004C0029711F4F9
S1130BC01092B100E881F9810480F581E02D108252
S1130BD0E881F981678170E080E591E00E94430536
S1130BE0FC011182108219821882DF91CF9108953D
S1130BF00E94CB0508950F931F93CF93DF93C82FC3
S1130C00D0E0BE0180E591E00E944305FC01008133
S1130C1011810115110569F0C8010E94CD04C801B4
S1130C200E94E404882329F0BE0186E591E00E9435
S1130C304704DF91CF911F910F9108951F920F9256
S1130C400FB60F9211242F933F934F935F936F939B
S1130C507F938F939F93AF93BF93EF93FF9380E022
S1130C600E94FB05FF91EF91BF91AF919F918F91EE
S1130C707F916F915F914F913F912F910F900FBE94
S1130C800F901F9018951F920F920FB60F92112478
S1130C902F933F934F935F936F937F938F939F9380
S1130CA0AF93BF93EF93FF9381E00E94FB05FF9105
S1130CB0EF91BF91AF919F918F917F916F915F91D0
S1130CC04F913F912F910F900FBE0F901F90189549
S1130CD01F920F920FB60F9211242F933F934F93AD
S1130CE05F936F937F938F939F93AF93BF93EF9390
S1130CF0FF9382E00E94FB05FF91EF91BF91AF91BA
S1130D009F918F917F916F915F914F913F912F911F
S1130D100F900FBE0F901F9018950E946A030895BC
S1130D20019759F46F3F7F4F41F486E591E00E94AB
S1130D308D0680E591E00E943D0508956FEF7FEFF9
S1130D4081E090E00E94900608956FEF7FEF80E0CD
S1130D5090E00E9490060895F894E0E6F0E0908117
S1130D6090619083908198609083808378940895B3
S1130D70F894A89584B7877F84BF789408950E94D7
S1130D80B806F894E0E6F0E0808180618083808199
S1130D908860808380818860808378940895009738
S1130DA0A9F090935D0180935C010E94B806F894C9
S1130DB0E0E6F0E0808180618083808188608083C8
S1130DC0808180648083789481E0089580E0089530
S1130DD01F920F920FB60F9211242F933F934F93AC
S1130DE05F936F937F938F939F93AF93BF93EF938F
S1130DF0FF9380915C0190915D010E94CF06E09188
S1130E005C01F0915D01309709F00995FF91EF9134
S1130E10BF91AF919F918F917F916F915F914F910E
S1130E203F912F910F900FBE0F901F90189550581F
S1130E30BB27AA270E942F070C9479080E946B08ED
S1130E4038F00E94720820F039F49F3F19F426F418
S1130E500C9468080EF4E095E7FB0C946208E92F03
S1130E600E948A0858F3BA17620773078407950724
S1130E7020F079F4A6F50C94AC080EF4E0950B2E52
S1130E80BA2FA02D0B01B90190010C01CA01A001D8
S1130E901124FF27591B99F0593F50F4503E68F133
S1130EA01A16F040A22F232F342F4427585FF3CF74
S1130EB0469537952795A795F0405395C9F77EF445
S1130EC01F16BA0B620B730B840BBAF09150A1F08E
S1130ED0FF0FBB1F661F771F881FC2F70EC0BA0F14
S1130EE0621F731F841F48F4879577956795B7959C
S1130EF0F7959E3F08F0B0CF9395880F08F0992797
S1130F00EE0F9795879508950E9498070C94790899
S1130F100E94720858F00E946B0840F029F45F3F69
S1130F2029F00C94620851110C94AD080C946808D3
S1130F300E948A0868F39923B1F3552391F3951B12
S1130F40550BBB27AA2762177307840738F09F5FE6
S1130F505F4F220F331F441FAA1FA9F335D00E2E53
S1130F603AF0E0E832D091505040E695001CCAF7C0
S1130F702BD0FE2F29D0660F771F881FBB1F261783
S1130F8037074807AB07B0E809F0BB0B802DBF015A
S1130F90FF2793585F4F3AF09E3F510578F00C9429
S1130FA062080C94AD085F3FE4F3983ED4F3869551
S1130FB077956795B795F7959F5FC9F7880F911D4A
S1130FC09695879597F90895E1E0660F771F881F36
S1130FD0BB1F621773078407BA0720F0621B730BE9
S1130FE0840BBA0BEE1F88F7E09508950E949208CF
S1130FF088F09F5798F0B92F9927B751B0F0E1F0D6
S1131000660F771F881F991F1AF0BA95C9F714C085
S1131010B13091F00E94AC08B1E008950C94AC0892
S1131020672F782F8827B85F39F0B93FCCF38695BE
S113103077956795B395D9F73EF49095809570951B
S113104061957F4F8F4F9F4F0895E89409C097FB98
S11310503EF490958095709561957F4F8F4F9F4F8B
S11310609923A9F0F92F96E9BB279395F6958795CF
S113107077956795B795F111F8CFFAF4BB0F11F492
S113108060FF1BC06F5F7F4F8F4F9F4F16C0882339
S113109011F096E911C0772321F09EE8872F762F6F
S11310A005C0662371F096E8862F70E060E02AF0B0
S11310B09A95660F771F881FDAF7880F969587959C
S11310C097F9089597F99F6780E870E060E00895C4
S11310D09FEF80EC089500240A941616170618064C
S11310E00906089500240A94121613061406050628
S11310F00895092E0394000C11F4882352F0BB0FB9
S113110040F4BF2B11F460FF04C06F5F7F4F8F4F1B
S11311109F4F089557FD9058440F551F59F05F3F56
S113112071F04795880F97FB991F61F09F3F79F005
S113113087950895121613061406551FF2CF469587
S1131140F1DF08C0161617061806991FF1CF869509
S11311507105610508940895E894BB2766277727ED
S1131160CB0197F908950F93083090F0982F872FAB
S1131170762F652F542F432F322F22270850F4CF78
S1131180220F331F441F551F661F771F881F991F87
S11311900A95B2F70F91089597FB10F8169400087A
S11311A00F93083098F00850232F342F452F562FD3
S11311B0672F782F892F902DF4CF059497958795D5
S11311C07795679557954795379527950A95AAF783
S11311D00F9108950024A7FD00942A1730054005B7
S11311E0500560057005800590050895EE0FFF1FFA
S11311F00590F491E02D099410E0C7E3D0E004C019
S1131200FE010E94F6082196CA33D107C9F7F89463
S1051210FFCF0A
S11312122A002B0029006D0002020024002500236D
S1131222006B0000000000000000700000020000DB
S111123200006F000101000000006E000000CB
S9030000FC
